{
  "abi": [
    {
      "anonymous": false,
      "inputs": [
        {
          "indexed": true,
          "internalType": "address",
          "name": "autor",
          "type": "address"
        },
        {
          "indexed": true,
          "internalType": "bytes32",
          "name": "hashFoto",
          "type": "bytes32"
        },
        {
          "indexed": false,
          "internalType": "uint256",
          "name": "timestamp",
          "type": "uint256"
        }
      ],
      "name": "NotarizacionRealizada",
      "type": "event"
    },
    {
      "inputs": [
        {
          "internalType": "bytes32",
          "name": "hashFoto",
          "type": "bytes32"
        }
      ],
      "name": "notarizar",
      "outputs": [],
      "stateMutability": "nonpayable",
      "type": "function"
    },
    {
      "inputs": [
        {
          "internalType": "bytes32",
          "name": "",
          "type": "bytes32"
        }
      ],
      "name": "registros",
      "outputs": [
        {
          "internalType": "uint256",
          "name": "",
          "type": "uint256"
        }
      ],
      "stateMutability": "view",
      "type": "function"
    }
  ],
  "bytecode": "608060405234801561001057600080fd5b5061017d806100206000396000f3fe608060405234801561001057600080fd5b50600436106100365760003560e01c8063762849cc1461003b5780638b29b8ee1461006d575b600080fd5b61005b61004936600461012e565b60006020819052908152604090205481565b60405190815260200160405180910390f35b61008061007b36600461012e565b610082565b005b806100cc5760405162461bcd60e51b815260206004820152601660248201527548617368206e6f20707565646520736572206365726f60501b604482015260640160405180910390fd5b600081815260208190526040812054900361012b576000818152602081815260409182902042908190559151918252829133917f4b9184d1c7ae30350e7eceab5ffbec6dc693d39e9de338f3273adc2523bbe397910160405180910390a35b50565b60006020828403121561014057600080fd5b503591905056fea264697066735822122081d07957a2bd368c0b0ede3652125356e06ddc1d75f4959e4853add04dfdde0364736f6c63430008110033",
  "bytecodeSha1": "15099ab841396ee00aefaaf96a3f4696d7fa3009",
  "compiler": {
    "evm_version": "istanbul",
    "optimizer": {
      "enabled": true,
      "runs": 200
    },
    "version": "0.8.17+commit.8df45f5f"
  },
  "contractName": "Notarizacion",
  "language": "Solidity",
  "natspec": {
    "kind": "dev",
    "methods": {
      "notarizar(bytes32)": {
        "details": "Registra el hash de una foto/vídeo en la blockchain.      Si el hash ya existe, no vuelve a emitir el evento.",
        "params": {
          "hashFoto": "El hash de la foto/vídeo (SHA-256)"
        }
      }
    },
    "version": 1
  },
  "opcodes": "PUSH1 0x80 PUSH1 0x40 MSTORE CALLVALUE DUP1 ISZERO PUSH2 0x10 JUMPI PUSH1 0x0 DUP1 REVERT JUMPDEST POP PUSH1 0x4 CALLDATASIZE LT PUSH2 0x36 JUMPI PUSH1 0x0 CALLDATALOAD PUSH1 0xE0 SHR DUP1 PUSH4 0x762849CC EQ PUSH2 0x3B JUMPI DUP1 PUSH4 0x8B29B8EE EQ PUSH2 0x6D JUMPI JUMPDEST PUSH1 0x0 DUP1 REVERT JUMPDEST PUSH2 0x5B PUSH2 0x49 CALLDATASIZE PUSH1 0x4 PUSH2 0x12E JUMP JUMPDEST PUSH1 0x0 PUSH1 0x20 DUP2 SWAP1 MSTORE SWAP1 DUP2 MSTORE PUSH1 0x40 SWAP1 KECCAK256 SLOAD DUP2 JUMP JUMPDEST PUSH1 0x40 MLOAD SWAP1 DUP2 MSTORE PUSH1 0x20 ADD PUSH1 0x40 MLOAD DUP1 SWAP2 SUB SWAP1 RETURN JUMPDEST PUSH2 0x80 PUSH2 0x7B CALLDATASIZE PUSH1 0x4 PUSH2 0x12E JUMP JUMPDEST PUSH2 0x82 JUMP JUMPDEST STOP JUMPDEST DUP1 PUSH2 0xCC JUMPI PUSH1 0x40 MLOAD PUSH3 0x461BCD PUSH1 0xE5 SHL DUP2 MSTORE PUSH1 0x20 PUSH1 0x4 DUP3 ADD MSTORE PUSH1 0x16 PUSH1 0x24 DUP3 ADD MSTORE PUSH22 0x48617368206E6F20707565646520736572206365726F PUSH1 0x50 SHL PUSH1 0x44 DUP3 ADD MSTORE PUSH1 0x64 ADD PUSH1 0x40 MLOAD DUP1 SWAP2 SUB SWAP1 REVERT JUMPDEST PUSH1 0x0 DUP2 DUP2 MSTORE PUSH1 0x20 DUP2 SWAP1 MSTORE PUSH1 0x40 DUP2 KECCAK256 SLOAD SWAP1 SUB PUSH2 0x12B JUMPI PUSH1 0x0 DUP2 DUP2 MSTORE PUSH1 0x20 DUP2 DUP2 MSTORE PUSH1 0x40 SWAP2 DUP3 SWAP1 KECCAK256 TIMESTAMP SWAP1 DUP2 SWAP1 SSTORE SWAP2 MLOAD SWAP2 DUP3 MSTORE DUP3 SWAP2 CALLER SWAP2 PUSH32 0x4B9184D1C7AE30350E7ECEAB5FFBEC6DC693D39E9DE338F3273ADC2523BBE397 SWAP2 ADD PUSH1 0x40 MLOAD DUP1 SWAP2 SUB SWAP1 LOG3 JUMPDEST POP JUMP JUMPDEST PUSH1 0x0 PUSH1 0x20 DUP3 DUP5 SUB SLT ISZERO PUSH2 0x140 JUMPI PUSH1 0x0 DUP1 REVERT JUMPDEST POP CALLDATALOAD SWAP2 SWAP1 POP JUMP INVALID LOG2 PUSH5 0x6970667358 0x22 SLT KECCAK256 DUP2 0xD0 PUSH26 0x57A2BD368C0B0EDE3652125356E06DDC1D75F4959E4853ADD04D REVERT 0xDE SUB PUSH5 0x736F6C6343 STOP ADDMOD GT STOP CALLER ",
  "sha1": "23664f0096537f56a3bde23dac03112f2e78ae77",
  "source": "// SPDX-License-Identifier: MIT\npragma solidity ^0.8.0;\n\ncontract Notarizacion {\n    // Evento que se dispara al registrar un hash\n    event NotarizacionRealizada(\n        address indexed autor,\n        bytes32 indexed hashFoto,\n        uint256 timestamp\n    );\n\n    // Mapeo para guardar primer timestamp de cada hash\n    mapping(bytes32 => uint256) public registros;\n\n    /**\n     * @dev Registra el hash de una foto/vídeo en la blockchain.\n     *      Si el hash ya existe, no vuelve a emitir el evento.\n     * @param hashFoto El hash de la foto/vídeo (SHA-256)\n     */\n    function notarizar(bytes32 hashFoto) external {\n        require(hashFoto != bytes32(0), \"Hash no puede ser cero\");\n\n        // Si es la primera vez, guardamos el timestamp y emitimos evento\n        if (registros[hashFoto] == 0) {\n            registros[hashFoto] = block.timestamp;\n            emit NotarizacionRealizada(msg.sender, hashFoto, block.timestamp);\n        }\n    }\n}",
  "sourcePath": "contracts/Notarizacion.sol",
  "type": "contract"
}